S0180000646F6F725F6C6F636B5F73797374656D2E737265634C
S113000045C0000060C000005EC000005CC000008D
S11300105AC0000058C0000056C0000054C0000080
S113002052C0000050C000004EC000004CC0000090
S11300304AC0000048C0000046C0000044C00000A0
S113004042C0000040C000003FC000003CC00000AF
S11300504AC0000038C0000036C0000034C00000B0
S113006032C0000030C000002EC000002CC00000D0
S11300702AC0000028C0000026C0000024C00000E0
S113008022C0000020C000001EC0000011241FBEBA
S1130090CFEFD0E1DEBFCDBF11E0A0E0B1E0E8E3F7
S11300A0F2E000E00BBF02C007900D92A830B10748
S11300B0D9F721E0A8E0B1E001C01D92A437B2074E
S11300C0E1F780D0B7C09CCF1F920F920FB60F926A
S11300D011248F938CB180930A018F910F900FBEDE
S11300E00F901F9018951F920F920FB60F92112424
S11300F00BB60F928F93AF93BF93EF93FF93E0915F
S11301007101F0E0E55FFE4F83A9811102C05698AA
S11301100BC0A1E7B1E0EC9181E08E0F8C93F0E08D
S1130120E55FFE4F83A98CB9FF91EF91BF91AF9129
S11301308F910F900BBE0F900FBE0F901F901895CC
S11301409BBD8ABD089522E022B99093900089B99D
S113015088E18AB9579A86E0809395000895789447
S11301608FEF87BB87E690E0EEDF8FE683BF82EAFE
S11301708FBD8AE18EBD12BE1DBC1CBC8CE987BD3F
S11301808FE386BD0895CF93DF93FC010190002097
S1130190E9F73197EF01C81BD90BAE01BC018EE31F
S11301A091E039D05D9BFECF80913E018CB981E016
S11301B080937101EC2FEF5FE0937201569ADF9107
S11301C0CF910895CCDF88E497E1BADF80E091E035
S11301D0DADF2FE788E391E0215080409040E1F797
S11301E000C000008091080190910901019681707E
S11301F09078992324F401978E6F9F6F01969093C2
S113020009018093080180910A01813311F782E08A
S113021091E0B9DFDECFFB01DC014150504048F0F2
S113022001900D920020C9F701C01D924150504029
S10B0230E0F70895F894FFCFF4
S10B02383100707573680000C9
S9030000FC
